:020000040800F2
:10000000600700208901000811090008F9040008B0
:100010000D09000831020008770F000800000000F9
:10002000000000000000000000000000BF0B0008FE
:10003000DD0300080000000099090008D10C000849
:10004000A3010008A3010008A3010008A301000800
:10005000A3010008A3010008A3010008A3010008F0
:10006000A3010008A3010008A3010008A3010008E0
:10007000A3010008A3010008A3010008A3010008D0
:10008000A3010008A3010008A3010008A3010008C0
:10009000A3010008A3010008A3010008A3010008B0
:1000A000A3010008A3010008A3010008A3010008A0
:1000B000A3010008A3010008A3010008A301000890
:1000C000A3010008A3010008A3010008A301000880
:1000D000A3010008350D0008A3010008A3010008D2
:1000E000A3010008A3010008A301000800F002F822
:1000F00000F03AF80AA090E8000C82448344AAF188
:100100000107DA4501D100F02FF8AFF2090EBAE885
:100110000F0013F0010F18BFFB1A43F0010318473B
:100120004C1100006C110000103A24BF78C878C14F
:10013000FAD8520724BF30C830C144BF04680C60ED
:10014000704700000023002400250026103A28BF35
:1001500078C1FBD8520728BF30C148BF0B60704739
:100160001FB51FBD10B510BD00F033F81146FFF7E5
:10017000F7FF00F073FF00F051F803B4FFF7F2FF50
:1001800003BC00F0FAFE0000094880470948004718
:10019000FEE7FEE7FEE7FEE7FEE7FEE7FEE7FEE737
:1001A000FEE7FEE704480549054A064B7047000094
:1001B000D50C0008ED000008600100206007002059
:1001C000600300206003002070477047704770474D
:1001D0007047754600F028F8AE460500694653465C
:1001E00020F00700854618B020B5FFF7DBFFBDE81B
:1001F00020404FF000064FF000074FF000084FF08E
:10020000000B21F00701AC46ACE8C009ACE8C0091E
:10021000ACE8C009ACE8C0098D4670470446AFF3AE
:1002200000802046FFF7A9FF00487047FC0000202F
:1002300000BFFEE710B500241548006820F47040A8
:10024000134908600846006840F40040086004E074
:10025000601CC4B2012000F0DBFE0E48006808B14B
:10026000642CF5DB642C01DB012010BD002404E0CC
:10027000601CC4B2012000F0CBFE0648006808B93B
:10028000642CF5DB642C01DB0120EEE70020ECE7B9
:10029000040C01402C81214208B50121082000F006
:1002A0008DFB4FF40060ADF8000010208DF80300C6
:1002B00003208DF802006946064800F090F84FF4DC
:1002C0000061044800F016F900F068F8FFF7B2FF8B
:1002D00008BD0000000C014010B5002404E0601CC3
:1002E000C4B2012000F094FE0D48006808B1642CEF
:1002F000F5DB002404E0601CC4B2012000F088FE9D
:100300000748006808B9642CF5DB282000F080FE5F
:100310000348006808B1012010BD0020FCE7000080
:100320002C81214270B50024002506E06006040EF1
:10033000FFF7D2FF0443681CC5B2082DF6DB204648
:1003400070BD7CB505460E4600F028F8FFF772FF39
:10035000F8B9002405E0FFF7E5FF0DF80400601C84
:10036000C4B2052CF7DB9DF800009DF8011008448D
:100370009DF8021008449DF8031008449DF80410ED
:10038000884208D19DF8000030709DF80200287066
:1003900001E001207CBD0020FCE7000010B50C4806
:1003A000006820F470400A4908600846006840F47C
:1003B00040500860002007490860142000F002FE49
:1003C00001200549C1F8AC011E2000F021FE10BD3E
:1003D000040C0140AC8121420080214270472DE98C
:1003E000F0410246002500260020002300240027BB
:1003F00091F803C00CF00F0591F803C00CF0100C3D
:10040000BCF1000F03D091F802C04CEA050591F849
:1004100000C0BCF1000F31D0146800202BE04FF079
:10042000010C0CFA00F3B1F800C00CEA03069E427E
:1004300020D183004FF00F0C0CFA03F7BC4305FAF0
:1004400003FC4CEA040491F803C0BCF1280F06D168
:100450004FF0010C0CFA00FCC2F814C00AE091F84D
:1004600003C0BCF1480F05D14FF0010C0CFA00FCA1
:10047000C2F810C0401C0828D1D31460B1F800C0E5
:10048000BCF1FF0F34DD546800202EE000F1080CB1
:100490004FF0010808FA0CF3B1F800C00CEA0306AB
:1004A0009E4221D183004FF00F0C0CFA03F7BC439E
:1004B00005FA03FC4CEA040491F803C0BCF1280FD0
:1004C00005D100F1080C08FA0CF8C2F8148091F874
:1004D00003C0BCF1480F07D100F1080C4FF0010830
:1004E00008FA0CF8C2F81080401C0828CED35460DB
:1004F000BDE8F0810161704700BFFEE721B10288CD
:1005000042F48062028004E002884FF6FF331A4012
:100510000280704721B1028842F00102028004E0AB
:1005200002884FF6FE731A40028070472DE9F043AF
:1005300085B004460D460026B1460427DFF8CC807E
:10054000A6884FF6C0700640684600F047FADDF80E
:1005500008802F48B8FBF0F01FFA80F946EA090638
:10056000A68020884FF6FE71084020800026294989
:10057000286888420CD828684000B8FBF0F087B2A1
:10058000042F00DA04273E4309F10100208427E00C
:10059000E8884BF6FF71884206D1286800EB4000DE
:1005A000B8FBF0F087B209E0286800EBC00101EB6E
:1005B0000010B8FBF0F087B247F48047C7F30B0098
:1005C00008B947F0010747F4004006434FF496701E
:1005D00009FB00F04FF47A7190FBF1F0401C20848D
:1005E000A683208840F00100208026884FF6F53051
:1005F0000640A8886989084306432680A889298976
:100600000843208105B0BDE8F083000000127A00A5
:1006100040420F00A086010010B500200F4908607D
:100620000F48006820F070400D49086008460068D7
:1006300040F04050086000200A49C1F89C010220A7
:1006400000F0E6FC012005490860022000F0E0FC13
:1006500000200449C1F8980110BD00009881214292
:10066000000C01400080214200B585B00121082026
:1006700000F0A4F90121480500F090F9C020ADF880
:10068000100010208DF8130003208DF8120004A92B
:100690001048FFF7A4FEC0210E48FFF72BFF0020F3
:1006A000ADF804004FF48060ADF80A000001ADF829
:1006B0000C004CF25030009069460748FFF736FFB7
:1006C00001210548FFF726FF01210348FFF716FF28
:1006D00005B000BD000C01400054004010B50020E2
:1006E0000F4908600F48006820F070400D4908600D
:1006F0000846006840F04050086001200A49C1F8EF
:100700009C01022000F084FC0120054908600220C1
:1007100000F07EFC00200449C1F8980110BD0000E3
:1007200098812142000C01400080214270B50546AD
:1007300000241748006820F07040154908600846FA
:10074000006840F000400860002616E000201149D3
:100750000860022000F05CFC01200F49C1F89801FC
:100760006006040E0B487C38006808B1601CC4B2F7
:10077000012000F04DFC701CC6B2082EE6DB15B956
:10078000FFF7ACFF01E0FFF747FF204670BD000018
:10079000000C0140988121420080214270B504463E
:1007A0001848006820F07040164908600846006844
:1007B00040F04050086000201349086000251EE00A
:1007C000E00920B101201049091D086003E0002064
:1007D0000D49091D08606006040E022000F018FC97
:1007E000012009490860022000F012FC002007499E
:1007F000C1F89801022000F00BFC681CC5B2082D5E
:10080000DEDB70BD000C0140988121420080214256
:1008100010B50F48006820F070400D490860084688
:10082000006840F04050086001200A4908600A4909
:10083000C1F89801042000F0EBFB00200549086096
:10084000042000F0E5FB00200349C1F8980110BD29
:10085000000C01409C8121420080214210B50F48CC
:10086000006820F070400D4908600846006840F0BC
:100870004050086000200A4908600A49C1F89C01FC
:10088000042000F0C5FB0120054908600549C1F8B6
:100890009C01042000F0BCFB10BD0000000C0140D6
:1008A000988121420080214210B50024144800683C
:1008B00020F07040124908600846006840F000408F
:1008C000086001200F49086000F0A2FB01200E49DA
:1008D000C1F8980100F09CFB07E0601CC4B2FA2C40
:1008E00003DDFFF7BBFF012010BD0648803800681C
:1008F0000028F2D10349091F086000BFF4E7000097
:10090000000C01409C8121420080214200BFFEE793
:100910007047000070B5002100230F22C47804B393
:10092000154C246804F4E064C4F5E064210AC1F1C4
:100930000403CA40447804FA03F184781440214344
:1009400009010E4C0678A155047804F01F05012416
:10095000AC4005786D11AD0005F1E025C5F800410A
:1009600009E0047804F01F050124AC40044D06782A
:10097000761145F8264070BD0CED00E000E400E083
:1009800080E100E002490143024A11607047000023
:100990000000FA050CED00E07047000029B1064A9E
:1009A000D2690243044BDA6104E0034AD26982430C
:1009B000014BDA61704700000010024029B1064A7D
:1009C00092690243044B9A6104E0034A92698243AC
:1009D000014B9A61704700000010024030B50021C1
:1009E0000022002400232D4D6D6805F00C0121B17B
:1009F000042905D0082923D105E0294D056022E00E
:100A0000274D05601FE0254D6D6805F47012234DDC
:100A10006D6805F48034022505EB92421CB9214D26
:100A2000554305600BE01D4D6D6805F400351DB1A3
:100A30001C4D5543056002E0194D5543056002E029
:100A4000174D056000BF00BF144D6D6805F0F00143
:100A50000909154D6B5C0568DD4045600F4D6D68FB
:100A600005F4E061090A104D6B5C4568DD40856066
:100A70000A4D6D6805F46051C90A0B4D6B5C456801
:100A8000DD40C560054D6D6805F44041890B074D9B
:100A90006B5CC568B5FBF3F5056130BD0010024025
:100AA00000127A0000093D001E0000202E000020E8
:100AB0002DE9F04704460D4600260027B046B14612
:100AC000FFF7A6FEB020FFF769FEFFF7EDFE20203E
:100AD000FFF764FEFFF7E8FE0820FFF75FFEFFF771
:100AE000E3FE4CF2503000F06DFAFFF791FEB120BA
:100AF000FFF754FEFFF7D8FE0120FFF717FE06466A
:100B00000120FFF713FE07460120FFF70FFE01202B
:100B1000FFF70CFE80460120FFF708FE814600200B
:100B2000FFF704FEFFF79AFE47EA0620208049EA15
:100B300008202880BDE8F08710B5FFF795FDFFF786
:100B400067FEB020FFF72AFEFFF7AEFE3620FFF764
:100B500025FEFFF7A9FE8220FFF720FEFFF7A4FE87
:100B6000FFF77CFE10BD10B5FFF752FEB020FFF777
:100B700015FEFFF799FE2020FFF710FEFFF794FE09
:100B80000320FFF70BFEFFF78FFEFFF767FE42F231
:100B9000107000F017FAFFF73BFEB020FFF7FEFDE4
:100BA000FFF782FE2020FFF7F9FDFFF77DFE08200A
:100BB000FFF7F4FDFFF778FEFFF750FE10BD70471A
:100BC00010B500F001F810BD0CB5002001900090A8
:100BD0003348006840F480303149086000BF304835
:100BE000006800F4003000900198401C01900098CB
:100BF00018B90198B0F5A06FF1D12948006800F448
:100C0000003010B10120009001E000200090009819
:100C1000012843D12348006840F0100021490860B2
:100C20000846006820F0030008600846006840F0AD
:100C3000020008601A484068194948600846406840
:100C400048600846406840F4806048600846406854
:100C500020F47C1048600846406840F4E810486082
:100C60000846006840F08070086000BF0C480068CB
:100C700000F000700028F9D00948406820F0030017
:100C8000074948600846406840F00200486000BFDD
:100C90000348406800F00C000828F9D10CBD0000A2
:100CA0000010024000200240042808D14FF0E0214B
:100CB000096941F004014FF0E022116107E04FF0B3
:100CC000E021096921F004014FF0E0221161704731
:100CD0007047000010B51348006840F0010011494A
:100CE000086008464068104908400E4948600846B8
:100CF00000680E4908400B4908600846006820F467
:100D0000802008600846406820F4FE0048604FF4E8
:100D10001F008860FFF754FF4FF00060044908602F
:100D200010BD0000001002400000FFF8FFFFF6FEBB
:100D300008ED00E010B540F225511D4800F057F8CD
:100D400010B31B4800F00EF9C4B21A48008800F432
:100D50000040C8B91748008800F4804060B10A2CF0
:100D600003D000201349088020E01248008840F496
:100D700000401049088019E00D2C06D10D4800886C
:100D800040F480400B49088010E00A480088C0F316
:100D90000D0009490C5407480088401C054908808B
:100DA00008460088C72801DD0020088010BD00002B
:100DB000003801401C0000203400002021B182894D
:100DC00042F40052828104E082894DF6FF731A409A
:100DD0008281704702460020B1F5007F00D100BF3C
:100DE00013880B400BB1012000E00020704770B564
:100DF0000246002400230025002040F66A16B14276
:100E000000D100BFC1F3421501F01F03012606FA0D
:100E100003F3012D02D19689334006E0022D02D161
:100E2000168A334001E0968A33400C12012606FAF6
:100E300004F41688344013B10CB1012000E0002006
:100E400070BDF0B50346002400260025002040F6C2
:100E50006A17B94200D100BF1846C1F3421401F02D
:100E60001F06012707FA06F5012C01D10C3004E01A
:100E7000022C01D1103000E014301AB107682F4362
:100E8000076002E00768AF430760F0BD2DE9F04757
:100E900086B005460E460024A24600BFA1460027A4
:100EA000B08900B100BF2F462C8A4CF6FF70044079
:100EB000F08804432C82AC894EF6F3100440B088CD
:100EC00031890843718908430443AC81AC8A4FF6E9
:100ED000FF400440B0890443AC8201A8FFF77EFDC7
:100EE0001F48874202D1DDF810A001E0DDF80CA018
:100EF000A88900F4004040B10AEBCA0000EB0A10D8
:100F000031684900B0FBF1F807E00AEBCA0000EBDA
:100F10000A1031688900B0FBF1F86420B8FBF0F0EA
:100F200004012009642101FB1089A88900F4004014
:100F300040B1322000EBC900B0FBF1F000F0070037
:100F4000044308E0322000EB09106421B0FBF1F00B
:100F500000F00F0004432C8106B0BDE8F0870000CC
:100F60000038014001468888C0F308007047C1F38B
:100F700008028280704700BFFEE7014600BF70474D
:100F800010B56FF00400FFF78FFE0A4800680A49A9
:100F9000B0FBF1F0094908700846007800EB400109
:100FA000C1EBC0104FF6FF7101EAC0000449088090
:100FB00010BD00000000002000127A001400002084
:100FC000160000200146114A12884A434FF0E023E0
:100FD0005A6100229A611A46126942F001021A61AE
:100FE00000BF4FF0E022106900F001021AB100F4D6
:100FF0008032002AF5D04FF0E022126922F001027F
:101000004FF0E0231A6100229A6170471600002019
:101010000146114A12784A434FF0E0235A610022F8
:101020009A611A46126942F001021A6100BF4FF03C
:10103000E022106900F001021AB100F48032002AA7
:10104000F5D04FF0E022126922F001024FF0E023C8
:101050001A6100229A617047140000201FB56327AF
:101060004FF074084FF068090024002003900290AC
:101070006425642601900090FFF782FF4FF4C06062
:10108000FFF780FC4FF4165000F0A0F8FFF704F9CA
:10109000FFF752FDFFF767FD4CF25030FFF792FF6C
:1010A0004CF25030FFF78EFF4CF25030FFF78AFFC2
:1010B0004CF25030FFF786FF4CF25030FFF782FFC2
:1010C0007EE0B4F5FA7F79D10024694601A8FFF7E4
:1010D00038F99DF80400A84219D09DF80450414603
:1010E0003848FFF744FF0C20FFF76CFF29463548CE
:1010F000FFF73DFF0C20FFF765FF00BF402131489F
:10110000FFF768FE0128F9D100202F4908809DF8DB
:101110000000B04219D09DF8006049462948FFF709
:1011200026FF0C20FFF74EFF31462648FFF71FFF32
:101130000C20FFF747FF00BF40212248FFF74AFE7F
:101140000128F9D100202049088002A903A8FFF74F
:10115000AFFC39461B48FFF70AFF0C20FFF732FFB0
:10116000BDF80C0001121748FFF701FF0C20FFF734
:1011700029FFBDF80C00C1B21248FFF7F8FE0C20A1
:10118000FFF720FFBDF8080001120E48FFF7EFFE41
:101190000C20FFF717FFBDF80800C1B20948FFF7A0
:1011A000E6FE0C20FFF70EFF00BF40210548FFF7C9
:1011B00011FE0128F9D1002003490880601C84B287
:1011C0007FE70000003801401C00002010B586B009
:1011D0000446012144F20400FFF7F0FB4FF40070D5
:1011E000ADF8140003208DF8160018208DF81700B4
:1011F00005A91C48FFF7F3F84FF48060ADF8140020
:1012000004208DF8170005A91648FFF7E8F82520F7
:101210008DF8000001208DF801008DF802008DF896
:1012200003006846FFF776FB01940020ADF8080044
:10123000ADF80A00ADF80C00ADF810000C20ADF8C8
:101240000E0001A90848FFF721FE012240F22551B6
:101250000548FFF7F6FD01210348FFF7AFFD06B093
:1012600010BD000000080140003801408C12000849
:10127000000000203400000028010008C01200080F
:10128000340000202C0700004401000800A24A049A
:101290000000000000000000010203040607080926
:1012A000000000000000000000000000000001023B
:1012B00003040102030406070809020406080000EB
:040000050800018965
:00000001FF
