:020000040800F2
:1000000060070020890100082D0B00081507000873
:10001000290B00081B0400085F1200080000000004
:10002000000000000000000000000000A70E000813
:10003000C905000800000000490C0008B90F0008BD
:10004000A3010008A3010008A3010008A301000800
:10005000A3010008A3010008A3010008A3010008F0
:10006000A3010008A3010008A3010008A3010008E0
:10007000A3010008A3010008A3010008A3010008D0
:10008000A3010008A3010008A3010008A3010008C0
:10009000A3010008A3010008A3010008A3010008B0
:1000A000A3010008A3010008A3010008A3010008A0
:1000B000A3010008A3010008A3010008A301000890
:1000C000A3010008A3010008A3010008A301000880
:1000D000A30100081D100008A3010008A3010008E7
:1000E000A3010008A3010008A301000800F002F822
:1000F00000F03AF80AA090E8000C82448344AAF188
:100100000107DA4501D100F02FF8AFF2090EBAE885
:100110000F0013F0010F18BFFB1A43F0010318473B
:1001200080140000A0140000103A24BF78C878C1E1
:10013000FAD8520724BF30C830C144BF04680C60ED
:10014000704700000023002400250026103A28BF35
:1001500078C1FBD8520728BF30C148BF0B60704739
:100160001FB51FBD10B510BD00F033F81146FFF7E5
:10017000F7FF01F0E7F800F051F803B4FFF7F2FFE2
:1001800003BC01F06EF800000948804709480047A9
:10019000FEE7FEE7FEE7FEE7FEE7FEE7FEE7FEE737
:1001A000FEE7FEE704480549054A064B7047000094
:1001B000BD0F0008ED00000860010020600700206E
:1001C000600300206003002070477047704770474D
:1001D0007047754600F028F8AE460500694653465C
:1001E00020F00700854618B020B5FFF7DBFFBDE81B
:1001F00020404FF000064FF000074FF000084FF08E
:10020000000B21F00701AC46ACE8C009ACE8C0091E
:10021000ACE8C009ACE8C0098D4670470446AFF3AE
:1002200000802046FFF7A9FF00487047FC0000202F
:1002300021B1826842F00102826003E0826822F00C
:10024000010282607047000010B5044612488442E3
:1002500008D10121401500F025FD0021601500F0B6
:1002600021FD17E00D48844208D10121001500F05E
:1002700019FD0021201500F015FD0BE0084884420F
:1002800008D10121C80300F00DFD00214FF400400A
:1002900000F008FD10BD00000024014000280140CE
:1002A000003C0140014600208A6802F004020AB1C5
:1002B000012000E0002070470146C86C80B2704702
:1002C0000246002013680B400BB1012000E0002023
:1002D0007047014600208A6802F008020AB1012036
:1002E00000E000207047000030B5024600200023E7
:1002F00050680F4C20400D790C6844EA05242043D7
:10030000506090680B4C2040D1E902542C434D7949
:1003100044EA450420439060D06A20F470000C7CCD
:10032000641EE4B2234340EA0350D06230BD0000B3
:10033000FFFEF0FFFDF7F1FFF0B504460D4600208B
:100340000021092D11DDE068A5F10A0606EB46073C
:10035000072606FA07F18843A5F10A0606EB4606CA
:1003600003FA06F10843E0600CE0206905EB45075D
:10037000072606FA07F1884305EB450603FA06F15E
:1003800008432061072A0FDA606B561E06EB8607CA
:100390001F2606FA07F18843561E06EB860605FA65
:1003A00006F10843606322E00D2A0FDA206BD61FA6
:1003B00006EB86071F2606FA07F18843D61F06EBD1
:1003C000860605FA06F10843206310E0E06AA2F110
:1003D0000D0606EB86071F2606FA07F18843A2F1F1
:1003E0000D0606EB860605FA06F10843E062F0BD4D
:1003F000816841F008018160704721B1826842F450
:10040000A002826003E0826822F4A002826070474A
:10041000816841F004018160704700BFFEE7000081
:1004200010B500241548006820F470401349086096
:100430000846006840F40040086004E0601CC4B254
:10044000012000F059FF0E48006808B1642CF5DB6C
:10045000642C01DB012010BD002404E0601CC4B248
:10046000012000F049FF0648006808B9642CF5DB5C
:10047000642C01DB0120EEE70020ECE7040C0140D6
:100480002C81214208B50121082000F0FBFB4FF42C
:100490000060ADF8000010208DF8030003208DF8F7
:1004A00002006946064800F090F84FF400610448E5
:1004B00000F016F900F068F8FFF7B2FF08BD000081
:1004C000000C014010B5002404E0601CC4B20120FF
:1004D00000F012FF0D48006808B1642CF5DB002421
:1004E00004E0601CC4B2012000F006FF0748006869
:1004F00008B9642CF5DB282000F0FEFE03480068F4
:1005000008B1012010BD0020FCE700002C81214231
:1005100070B50024002506E06006040EFFF7D2FF48
:100520000443681CC5B2082DF6DB204670BD7CB5BF
:1005300005460E4600F028F8FFF772FFF8B90024D0
:1005400005E0FFF7E5FF0DF80400601CC4B2052CC0
:10055000F7DB9DF800009DF8011008449DF802109B
:1005600008449DF8031008449DF80410884208D1FF
:100570009DF8000030709DF80200287001E0012015
:100580007CBD0020FCE7000010B50C48006820F49A
:1005900070400A4908600846006840F4405008600E
:1005A000002007490860142000F080FE0120054962
:1005B000C1F8AC011E2000F09FFE10BD040C0140EC
:1005C000AC8121420080214270472DE9F041024672
:1005D00000250026002000230024002791F803C0F6
:1005E0000CF00F0591F803C00CF0100CBCF1000FDB
:1005F00003D091F802C04CEA050591F800C0BCF1A7
:10060000000F31D0146800202BE04FF0010C0CFAE1
:1006100000F3B1F800C00CEA03069E4220D183002B
:100620004FF00F0C0CFA03F7BC4305FA03FC4CEA3D
:10063000040491F803C0BCF1280F06D14FF0010C5F
:100640000CFA00FCC2F814C00AE091F803C0BCF137
:10065000480F05D14FF0010C0CFA00FCC2F810C095
:10066000401C0828D1D31460B1F800C0BCF1FF0FC2
:1006700034DD546800202EE000F1080C4FF0010832
:1006800008FA0CF3B1F800C00CEA03069E4221D12F
:1006900083004FF00F0C0CFA03F7BC4305FA03FC80
:1006A0004CEA040491F803C0BCF1280F05D100F115
:1006B000080C08FA0CF8C2F8148091F803C0BCF1D9
:1006C000480F07D100F1080C4FF0010808FA0CF8A8
:1006D000C2F81080401C0828CED35460BDE8F081D9
:1006E0000161704710B50723012211460848FFF742
:1006F00023FE01210648FFF780FE00BF02210448C7
:10070000FFF7DEFD0028F9D00148FFF7D5FD10BD49
:100710000024014000BFFEE721B1028842F480625C
:10072000028004E002884FF6FF331A4002807047CF
:1007300021B1028842F00102028004E002884FF6F3
:10074000FE731A40028070472DE9F04385B00446DD
:100750000D460026B1460427DFF8CC80A6884FF668
:10076000C0700640684600F0ADFADDF808802F48FA
:10077000B8FBF0F01FFA80F946EA0906A680208847
:100780004FF6FE71084020800026294928688842DB
:100790000CD828684000B8FBF0F087B2042F00DACC
:1007A00004273E4309F10100208427E0E8884BF646
:1007B000FF71884206D1286800EB4000B8FBF0F0DA
:1007C00087B209E0286800EBC00101EB0010B8FB1C
:1007D000F0F087B247F48047C7F30B0008B947F041
:1007E000010747F4004006434FF4967009FB00F000
:1007F0004FF47A7190FBF1F0401C2084A68320888E
:1008000040F00100208026884FF6F5300640A88889
:100810006989084306432680A889298908432081DD
:1008200005B0BDE8F083000000127A0040420F00DE
:10083000A086010010B500200F4908600F4800682D
:1008400020F070400D4908600846006840F04050B4
:10085000086000200A49C1F89C01022000F04CFD0C
:10086000012005490860022000F046FD00200449EF
:10087000C1F8980110BD000098812142000C014090
:100880000080214200B585B00121082000F0FAF96E
:100890000121480500F0E6F9C020ADF81000102055
:1008A0008DF8130003208DF8120004A91048FFF7FB
:1008B0008CFEC0210E48FFF713FF0020ADF80400A6
:1008C0004FF48060ADF80A000001ADF80C004CF266
:1008D0005030009069460748FFF736FF0121054870
:1008E000FFF726FF01210348FFF716FF05B000BD03
:1008F000000C01400054004010B500200F49086072
:100900000F48006820F070400D49086008460068F4
:1009100040F04050086001200A49C1F89C010220C3
:1009200000F0EAFC012005490860022000F0E4FC28
:1009300000200449C1F8980110BD000098812142AF
:10094000000C01400080214270B505460024174884
:10095000006820F07040154908600846006840F0C3
:1009600000400860002616E00020114908600220BF
:1009700000F0C2FC01200F49C1F898016006040E86
:100980000B487C38006808B1601CC4B2012000F03C
:10099000B3FC701CC6B2082EE6DB15B9FFF7ACFF3E
:1009A00001E0FFF747FF204670BD0000000C01404A
:1009B000988121420080214270B5044618480068A1
:1009C00020F07040164908600846006840F040502A
:1009D000086000201349086000251EE0E00920B1EE
:1009E00001201049091D086003E000200D49091D80
:1009F00008606006040E022000F07EFC0120094918
:100A00000860022000F078FC00200749C1F8980136
:100A1000022000F071FC681CC5B2082DDEDB70BD41
:100A2000000C0140988121420080214210B50F48FE
:100A3000006820F070400D4908600846006840F0EA
:100A40004050086001200A4908600A49C1F898012D
:100A5000042000F051FC002005490860042000F04B
:100A60004BFC00200349C1F8980110BD000C014067
:100A70009C8121420080214210B50F48006820F07F
:100A800070400D4908600846006840F0405008601A
:100A900000200A4908600A49C1F89C01042000F0BE
:100AA0002BFC0120054908600549C1F89C01042080
:100AB00000F022FC10BD0000000C01409881214292
:100AC0000080214210B500241448006820F07040D6
:100AD000124908600846006840F0004008600120A4
:100AE0000F49086000F008FC01200E49C1F8980188
:100AF00000F002FC07E0601CC4B2FA2C03DDFFF733
:100B0000BBFF012010BD0648803800680028F2D1E4
:100B10000349091F086000BFF4E70000000C014012
:100B20009C8121420080214200BFFEE77047000007
:100B300070B5002100230F22C47804B3154C24683B
:100B400004F4E064C4F5E064210AC1F10403CA407E
:100B5000447804FA03F184781440214309010E4CCF
:100B60000678A155047804F01F050124AC400578EF
:100B70006D11AD0005F1E025C5F8004109E00478EC
:100B800004F01F050124AC40044D0678761145F8A9
:100B9000264070BD0CED00E000E400E080E100E0E4
:100BA00002490143024A1160704700000000FA0543
:100BB0000CED00E000B587B001214FF4027000F0A9
:100BC00061F84FF4404000F041F80120ADF8040016
:100BD00000208DF8070003208DF8060001A91848B1
:100BE000FFF7F3FC1748FFF72FFB002002908DF86A
:100BF0000C008DF80D004FF460200490002005904B
:100C000001208DF8180002A90E48FFF76DFB0121A5
:100C10000C48FFF70DFB0B48FFF7EAFB00BF094844
:100C2000FFF757FB0028FAD10648FFF7F1FB00BF9A
:100C30000448FFF737FB0028FAD107B000BD0000D9
:100C4000000C0140002401407047000001460020D4
:100C5000034A506820F44040084350607047000049
:100C60000010024029B1064AD2690243044BDA61FE
:100C700004E0034AD2698243014BDA617047000005
:100C80000010024029B1064A92690243044B9A615E
:100C900004E0034A92698243014B9A617047000065
:100CA0000010024029B1064AD2680243044BDA60C0
:100CB00004E0034AD2688243014BDA6070470000C7
:100CC0000010024030B500210022002400232D4DE9
:100CD0006D6805F00C0121B1042905D0082923D144
:100CE00005E0294D056022E0274D05601FE0254DF8
:100CF0006D6805F47012234D6D6805F4803402258B
:100D000005EB92421CB9214D554305600BE01D4D8A
:100D10006D6805F400351DB11C4D5543056002E0BA
:100D2000194D5543056002E0174D056000BF00BF37
:100D3000144D6D6805F0F0010909154D6B5C0568EF
:100D4000DD4045600F4D6D6805F4E061090A104D06
:100D50006B5C4568DD4085600A4D6D6805F4605147
:100D6000C90A0B4D6B5C4568DD40C560054D6D687B
:100D700005F44041890B074D6B5CC568B5FBF3F585
:100D8000056130BD0010024000127A0000093D00EC
:100D90001E0000202E0000202DE9F04704460D46DD
:100DA00000260027B046B146FFF740FEB020FFF70F
:100DB00003FEFFF787FE2020FFF7FEFDFFF782FE10
:100DC0000820FFF7F9FDFFF77DFE4CF2503000F0F0
:100DD0006DFAFFF72BFEB120FFF7EEFDFFF772FE75
:100DE0000120FFF7B1FD06460120FFF7ADFD0746E4
:100DF0000120FFF7A9FD0120FFF7A6FD8046012095
:100E0000FFF7A2FD81460020FFF79EFDFFF734FEAD
:100E100047EA0620208049EA08202880BDE8F087BC
:100E200010B5FFF72FFDFFF701FEB020FFF7C4FD5F
:100E3000FFF748FE3620FFF7BFFDFFF743FE822095
:100E4000FFF7BAFDFFF73EFEFFF716FE10BD10B527
:100E5000FFF7ECFDB020FFF7AFFDFFF733FE2020DA
:100E6000FFF7AAFDFFF72EFE0320FFF7A5FDFFF712
:100E700029FEFFF701FE42F2107000F017FAFFF7AB
:100E8000D5FDB020FFF798FDFFF71CFE2020FFF7EF
:100E900093FDFFF717FE0820FFF78EFDFFF712FE08
:100EA000FFF7EAFD10BD704710B500F001F810BD66
:100EB0000CB50020019000903348006840F4803069
:100EC0003149086000BF3048006800F400300090ED
:100ED0000198401C0190009818B90198B0F5A06FD6
:100EE000F1D12948006800F4003010B101200090D1
:100EF00001E0002000900098012843D123480068B9
:100F000040F01000214908600846006820F0030006
:100F100008600846006840F0020008601A4840680F
:100F2000194948600846406848600846406840F4EF
:100F3000806048600846406820F47C10486008469D
:100F4000406840F4E81048600846006840F080704F
:100F5000086000BF0C48006800F000700028F9D05D
:100F60000948406820F00300074948600846406887
:100F700040F00200486000BF0348406800F00C00E9
:100F80000828F9D10CBD00000010024000200240EA
:100F9000042808D14FF0E021096941F004014FF025
:100FA000E022116107E04FF0E021096921F004011E
:100FB0004FF0E022116170477047000010B51348F0
:100FC000006840F001001149086008464068104977
:100FD00008400E494860084600680E4908400B4921
:100FE00008600846006820F48020086008464068D1
:100FF00020F4FE0048604FF41F008860FFF754FFA4
:101000004FF000600449086010BD0000001002406D
:101010000000FFF8FFFFF6FE08ED00E010B540F21B
:1010200025511D4800F057F810B31B4800F00EF989
:10103000C4B21A48008800F40040C8B917480088B4
:1010400000F4804060B10A2C03D0002013490880CE
:1010500020E01248008840F400401049088019E060
:101060000D2C06D10D48008840F480400B490880C3
:1010700010E00A480088C0F30D0009490C540748E5
:101080000088401C0549088008460088C72801DD03
:101090000020088010BD0000003801401C00002026
:1010A0003400002021B1828942F40052828104E0A0
:1010B00082894DF6FF731A408281704702460020F4
:1010C000B1F5007F00D100BF13880B400BB10120A8
:1010D00000E00020704770B5024600240023002580
:1010E000002040F66A16B14200D100BFC1F342159C
:1010F00001F01F03012606FA03F3012D02D19689A0
:10110000334006E0022D02D1168A334001E0968A70
:1011100033400C12012606FA04F41688344013B149
:101120000CB1012000E0002070BDF0B503460024A2
:1011300000260025002040F66A17B94200D100BF02
:101140001846C1F3421401F01F06012707FA06F5FD
:10115000012C01D10C3004E0022C01D1103000E050
:1011600014301AB107682F43076002E00768AF43E5
:101170000760F0BD2DE9F04786B005460E46002415
:10118000A24600BFA1460027B08900B100BF2F468C
:101190002C8A4CF6FF700440F08804432C82AC8902
:1011A0004EF6F3100440B088318908437189084332
:1011B0000443AC81AC8A4FF6FF400440B08904433D
:1011C000AC8201A8FFF77EFD1F48874202D1DDF8FF
:1011D00010A001E0DDF80CA0A88900F4004040B1A7
:1011E0000AEBCA0000EB0A1031684900B0FBF1F8C5
:1011F00007E00AEBCA0000EB0A1031688900B0FB77
:10120000F1F86420B8FBF0F004012009642101FB2F
:101210001089A88900F4004040B1322000EBC900D9
:10122000B0FBF1F000F00700044308E0322000EBCF
:1012300009106421B0FBF1F000F00F0004432C8191
:1012400006B0BDE8F08700000038014001468888FC
:10125000C0F308007047C1F308028280704700BFE6
:10126000FEE7014600BF704710B56FF00400FFF7BE
:101270008FFE0A4800680A49B0FBF1F0094908707E
:101280000846007800EB4001C1EBC0104FF6FF713B
:1012900001EAC0000449088010BD000000000020E1
:1012A00000127A0014000020160000200146114AA6
:1012B00012884A434FF0E0235A6100229A611A468D
:1012C000126942F001021A6100BF4FF0E02210697A
:1012D00000F001021AB100F48032002AF5D04FF07C
:1012E000E022126922F001024FF0E0231A6100228D
:1012F0009A617047160000200146114A12784A434D
:101300004FF0E0235A6100229A611A46126942F0B6
:1013100001021A6100BF4FF0E022106900F00102E3
:101320001AB100F48032002AF5D04FF0E0221269A1
:1013300022F001024FF0E0231A6100229A61704707
:10134000140000201FB54FF063084FF074094FF0F0
:10135000680A4FF06F0B00240020039002900025D4
:101360006426642701900090FFF77EFF4FF4C06071
:10137000FFF716FC4FF4165000F0C2F8FFF782F8A2
:10138000FFF718FCFFF74CFDFFF761FD4CF2503002
:10139000FFF78CFF4CF25030FFF788FF4CF25030D3
:1013A000FFF784FF4CF25030FFF780FF4CF25030D3
:1013B000FFF77CFF9FE0B4F5FA7F7DD10024FFF7B3
:1013C00091F9054659464C48FFF745FF0C20FFF7B9
:1013D0006DFF29124848FFF73EFF0C20FFF766FF1C
:1013E000E9B24548FFF737FF00BF40214248FFF709
:1013F00065FE0128F9D1002040490880694601A80E
:10140000FFF795F89DF80400B04219D09DF80460EC
:1014100049463948FFF71FFF0C20FFF747FF3146C9
:101420003548FFF718FF0C20FFF740FF00BF4021B1
:101430003148FFF743FE0128F9D100202F490880E9
:101440009DF80000B84219D09DF8007051462A4816
:10145000FFF701FF0C20FFF729FF39462648FFF769
:10146000FAFE0C20FFF722FF00BF40212248FFF7C1
:1014700025FE0128F9D100202049088002A903A8EF
:10148000FFF78AFC41461C48FFF7E5FE0C20FFF7FA
:101490000DFFBDF80C0001121748FFF7DCFE0C2011
:1014A000FFF704FFBDF80C00C1B21348FFF7D3FEED
:1014B0000C20FFF7FBFE00E01BE0BDF80800011266
:1014C0000D48FFF7C8FE0C20FFF7F0FEBDF808003E
:1014D000C1B20948FFF7BFFE0C20FFF7E7FE00BFCF
:1014E00040210548FFF7EAFD0128F9D10020034912
:1014F0000880601C84B25EE7003801401C000020B8
:1015000010B586B00446012144F20400FFF7BAFB8F
:101510004FF40070ADF8140003208DF81600182069
:101520008DF8170005A91C48FFF74FF84FF48060AD
:10153000ADF8140004208DF8170005A91648FFF730
:1015400044F825208DF8000001208DF801008DF869
:1015500002008DF803006846FFF7EAFA01940020C4
:10156000ADF80800ADF80A00ADF80C00ADF81000B9
:101570000C20ADF80E0001A90848FFF7FBFD012281
:1015800040F225510548FFF7D0FD01210348FFF740
:1015900089FD06B010BD0000000801400038014080
:1015A000C0150008000000203400000028010008D9
:1015B000F4150008340000202C0700004401000846
:1015C00000A24A0400000000000000000102030421
:1015D00006070809000000000000000000000000ED
:1015E00000000102030401020304060708090204C3
:0415F00006080000E9
:040000050800018965
:00000001FF
