:020000040800F2
:10000000480700208901000801050008F9040008DC
:10001000FD04000831020008C707000800000000C6
:10002000000000000000000000000000690500085A
:10003000DD03000800000000450500087D060008FB
:10004000A3010008A3010008A3010008A301000800
:10005000A3010008A3010008A3010008A3010008F0
:10006000A3010008A3010008A3010008A3010008E0
:10007000A3010008A3010008A3010008A3010008D0
:10008000A3010008A3010008A3010008A3010008C0
:10009000A3010008A3010008A3010008A3010008B0
:1000A000A3010008A3010008A3010008A3010008A0
:1000B000A3010008A3010008A3010008A301000890
:1000C000A3010008A3010008A3010008A301000880
:1000D000A3010008E1060008A3010008A30100082D
:1000E000A3010008A3010008A301000800F002F822
:1000F00000F03AF80AA090E8000C82448344AAF188
:100100000107DA4501D100F02FF8AFF2090EBAE885
:100110000F0013F0010F18BFFB1A43F0010318473B
:10012000C01A0000E01A0000103A24BF78C878C155
:10013000FAD8520724BF30C830C144BF04680C60ED
:10014000704700000023002400250026103A28BF35
:1001500078C1FBD8520728BF30C148BF0B60704739
:100160001FB51FBD10B510BD00F033F81146FFF7E5
:10017000F7FF00F07DFD00F051F803B4FFF7F2FF48
:1001800003BC00F022FB00000948804709480047F3
:10019000FEE7FEE7FEE7FEE7FEE7FEE7FEE7FEE737
:1001A000FEE7FEE704480549054A064B7047000094
:1001B00081060008ED0000084801002048070020E3
:1001C000480300204803002070477047704770477D
:1001D0007047754600F028F8AE460500694653465C
:1001E00020F00700854618B020B5FFF7DBFFBDE81B
:1001F00020404FF000064FF000074FF000084FF08E
:10020000000B21F00701AC46ACE8C009ACE8C0091E
:10021000ACE8C009ACE8C0098D4670470446AFF3AE
:1002200000802046FFF7A9FF00487047E800002043
:1002300000BFFEE710B500241548006820F47040A8
:10024000134908600846006840F40040086004E074
:10025000601CC4B2012000F019FB0E48006808B110
:10026000642CF5DB642C01DB012010BD002404E0CC
:10027000601CC4B2012000F009FB0648006808B900
:10028000642CF5DB642C01DB0120EEE70020ECE7B9
:10029000040C01402C81214208B50121082000F006
:1002A00053F94FF40060ADF8000010208DF8030002
:1002B00003208DF802006946064800F090F84FF4DC
:1002C0000061044800F016F900F068F8FFF7B2FF8B
:1002D00008BD0000000C014010B5002404E0601CC3
:1002E000C4B2012000F0D2FA0D48006808B1642CB5
:1002F000F5DB002404E0601CC4B2012000F0C6FA63
:100300000748006808B9642CF5DB282000F0BEFA25
:100310000348006808B1012010BD0020FCE7000080
:100320002C81214270B50024002506E06006040EF1
:10033000FFF7D2FF0443681CC5B2082DF6DB204648
:1003400070BD7CB505460E4600F028F8FFF772FF39
:10035000F8B9002405E0FFF7E5FF0DF80400601C84
:10036000C4B2052CF7DB9DF800009DF8011008448D
:100370009DF8021008449DF8031008449DF80410ED
:10038000884208D19DF8000030709DF80200287066
:1003900001E001207CBD0020FCE7000010B50C4806
:1003A000006820F470400A4908600846006840F47C
:1003B00040500860002007490860142000F040FA0F
:1003C00001200549C1F8AC011E2000F05FFA10BD04
:1003D000040C0140AC8121420080214270472DE98C
:1003E000F0410246002500260020002300240027BB
:1003F00091F803C00CF00F0591F803C00CF0100C3D
:10040000BCF1000F03D091F802C04CEA050591F849
:1004100000C0BCF1000F31D0146800202BE04FF079
:10042000010C0CFA00F3B1F800C00CEA03069E427E
:1004300020D183004FF00F0C0CFA03F7BC4305FAF0
:1004400003FC4CEA040491F803C0BCF1280F06D168
:100450004FF0010C0CFA00FCC2F814C00AE091F84D
:1004600003C0BCF1480F05D14FF0010C0CFA00FCA1
:10047000C2F810C0401C0828D1D31460B1F800C0E5
:10048000BCF1FF0F34DD546800202EE000F1080CB1
:100490004FF0010808FA0CF3B1F800C00CEA0306AB
:1004A0009E4221D183004FF00F0C0CFA03F7BC439E
:1004B00005FA03FC4CEA040491F803C0BCF1280FD0
:1004C00005D100F1080C08FA0CF8C2F8148091F874
:1004D00003C0BCF1480F07D100F1080C4FF0010830
:1004E00008FA0CF8C2F81080401C0828CED35460DB
:1004F000BDE8F0810161704700BFFEE700BFFEE785
:100500007047000002490143024A11607047000031
:100510000000FA050CED00E008B50121082000F00C
:1005200013F80320ADF8000010208DF8030003201D
:100530008DF8020069460248FFF751FF08BD000030
:10054000000C01407047000029B1064A926902433D
:10055000044B9A6104E0034A92698243014B9A6119
:100560007047000000100240704710B500F002F81C
:1005700010BD00000CB500200190009033480068C9
:1005800040F480303149086000BF3048006800F412
:10059000003000900198401C0190009818B9019813
:1005A000B0F5A06FF1D12948006800F4003010B117
:1005B0000120009001E0002000900098012843D124
:1005C0002348006840F01000214908600846006890
:1005D00020F0030008600846006840F00200086050
:1005E0001A4840681949486008464068486008460B
:1005F000406840F4806048600846406820F47C1001
:1006000048600846406840F4E810486008460068C2
:1006100040F08070086000BF0C48006800F0007077
:100620000028F9D00948406820F0030007494860D5
:100630000846406840F00200486000BF0348406838
:1006400000F00C000828F9D10CBD00000010024099
:1006500000200240042808D14FF0E021096941F050
:1006600004014FF0E022116107E04FF0E021096939
:1006700021F004014FF0E022116170477047000043
:1006800010B51348006840F00100114908600846A1
:100690004068104908400E494860084600680E4905
:1006A00008400B4908600846006820F48020086074
:1006B0000846406820F4FE0048604FF41F00886040
:1006C000FFF753FF4FF000600449086010BD0000C1
:1006D000001002400000FFF8FFFFF6FE08ED00E00A
:1006E00010B540F225511D4800F03EF810B31B48EC
:1006F00000F064F8C4B21A48008800F40040C8B999
:100700001748008800F4804060B10A2C03D0002014
:100710001349088020E01248008840F40040104946
:10072000088019E00D2C06D10D48008840F4804067
:100730000B49088010E00A480088C0F30D00094901
:100740000C5407480088401C05490880084600886A
:10075000C72801DD0020088010BD000000380140DE
:100760001C0000202000002070B502460024002359
:100770000025002040F66A16B14200D100BFC1F347
:10078000421501F01F03012606FA03F3012D02D1E1
:100790009689334006E0022D02D1168A334001E0EB
:1007A000968A33400C12012606FA04F41688344067
:1007B00013B10CB1012000E0002070BD0146888813
:1007C000C0F30800704700BFFEE7014600BF704756
:1007D00070B500240FE0611CC8B2012100F032FAAC
:1007E000002504E0002000F0B9FA681CC5B2802D95
:1007F000F8DB601CC4B2082CEDDB70BD10B56FF0E7
:100800000400FFF727FF0A4800680A49B0FBF1F02F
:10081000094908700846007800EB4001C1EBC010A0
:100820004FF6FF7101EAC0000449088010BD0000C6
:100830000000002000127A001400002016000020A2
:100840000146114A12884A434FF0E0235A610022C0
:100850009A611A46126942F001021A6100BF4FF014
:10086000E022106900F001021AB100F48032002A7F
:10087000F5D04FF0E022126922F001024FF0E023A0
:100880001A6100229A617047160000200146114A41
:1008900012784A434FF0E0235A6100229A611A46C7
:1008A000126942F001021A6100BF4FF0E0221069A4
:1008B00000F001021AB100F48032002AF5D04FF0A6
:1008C000E022126922F001024FF0E0231A610022B7
:1008D0009A61704714000020F8B507460E46154689
:1008E000002427E0285D7E2814DD285D8DF80000B7
:1008F000601C285C8DF8010000208DF802006A461B
:100900003146384600F094F806F11000C6B2A01C3B
:10091000C4B20FE0285D8DF8000000208DF80100C2
:100920006A463146384600F0F1F806F10800C6B2D2
:10093000601CC4B2285D0028D4D1F8BD2DE9F8436D
:100940008146884616460024002700250020009096
:100950000A2096FBF0F100FB1160C0B28DF8030095
:100960000A2096FBF0F00A2190FBF1F201FB120045
:10097000C0B28DF80200642096FBF0F090FBF1F21B
:1009800001FB1200C0B28DF801004FF47A7096FBA3
:10099000F0F090FBF1F201FB1200C0B28DF8000004
:1009A00000BF3FE01DF804001030C0B20DF8040095
:1009B000002716E0082000FB0480C1B2484600F082
:1009C00041F9002509E01DF80410184A02EB011155
:1009D000485D00F0C3F9681CC5B2082DF3DB781C34
:1009E000C7B2022FE6DB002718E0082202FB0482D0
:1009F000D1B209F10102D0B200F024F9082509E0D2
:100A00001DF80410094A02EB0111485D00F0A6F937
:100A1000681CC5B2102DF3DB781CC7B2022FE4DBD3
:100A2000601CC4B2042CBDDBBDE8F883DC0D0008FB
:100A30002DE9F04707468946904600265CE00024F1
:100A40004FF0010A12E02F48005D18F806108842A6
:100A50000AD12C49601C095C701C18F80000814206
:100A600002D14FEA041A05E0A01CC4B22548005D7B
:100A70007E28E8DC00BFB9F1710F03DD4FF00009FB
:100A8000B81CC7B2BAF1010F1CD0002515E07919C6
:100A9000C8B2494600F0D6F800240AE01A4911F815
:100AA0000A0000F05BF90AF101001FFA80FA601CED
:100AB000C4B2102CF2DB681CC5B2022DE7DBB01CFF
:100AC000C6B215E000250FE07919C8B2494600F01A
:100AD000B9F8002404E0002000F040F9601CC4B222
:100AE000102CF8DB681CC5B2022DEDDB701CC6B201
:100AF00009F1100000F0FF0918F8060000289ED147
:100B0000BDE8F087781B00087F1B00082DE9F0473F
:100B100080460E46154600247B2E04DD012608F192
:100B200002001FFA80F830E0285D20282BDB285DCA
:100B30007E2828DC285D20381FFA80FA00271AE07A
:100B4000F1B208EB0702D0B200F07CF84FF00009D8
:100B50000CE0104901EB0A11082202FB0792885CA5
:100B600000F0FCF809F101001FFA80F9B9F1080F53
:100B7000EFDB781C87B2022FE2DB601C84B206F147
:100B8000080086B201E0601C84B2285D0028CBDC3E
:100B9000BDE8F087DC0D000810B50020274908608B
:100BA0004FF4FA70FFF74CFE01202549C1F88C0183
:100BB000AE2000F0C3F8D52000F0C0F8802000F08F
:100BC000BDF8A82000F0BAF83F2000F0B7F8D32015
:100BD00000F0B4F8002000F0B1F8402000F0AEF8CA
:100BE0008D2000F0ABF8142000F0A8F8202000F0D1
:100BF000A5F8022000F0A2F8C82000F09FF8A1207C
:100C000000F09CF8DA2000F099F8122000F096F835
:100C1000812000F093F8CF2000F090F8D92000F068
:100C20008DF8F12000F08AF8DB2000F087F84020F2
:100C300000F084F8AF2000F081F810BD8C01224252
:100C40000000224270B505460C46601EC4B2681E04
:100C5000C5B205F1B00000F071F8102101EB1410DD
:100C600000F06CF804F00F0000F068F870BD0000B0
:100C70001CB50024FFF7C2FD4FF4A060FFF742FC53
:100C8000FFF70AFBFFF748FCFFF786FFFFF7A0FD21
:100C900027E014A201210846FFF71EFE13A201213E
:100CA0000320FFF719FE0A2094FBF0F100FB11402E
:100CB00078B9694601A8FFF744FB9DF804202E216E
:100CC0000120FFF73BFE9DF800202E210320FFF7B7
:100CD00035FE0A20FFF7B4FD601CC4B2142C00D10D
:100CE0000024D6E7CEC2B6C83A000000CAAAB6C8E9
:100CF0003A0000000120064908600649C1F8840155
:100D000000200349091D08600249C1F880017047AD
:100D10008081214200802142002006490860064966
:100D2000C1F8840101200349091D08600249C1F886
:100D300080017047808121420080214210B5044625
:100D4000FFF7D8FF782000F019F8002000F016F81F
:100D5000E0B200F013F8FFF7DFFF10BD10B5044656
:100D6000FFF7C8FF782000F009F8402000F006F8EF
:100D7000E0B200F003F8FFF7CFFF10BD2DE9F0411E
:100D800005462C46002716E026460020114908603B
:100D900006F08006802E03D10120091D086003E0C3
:100DA00000200C49091D08606006040E0120094955
:100DB0000860781CC7B2082FE6DB002005490860F0
:100DC0000320FFF763FD01200349C1F88001BDE85E
:100DD000F08100008081214200802142000000005B
:100DE000000000000000000000000000000038FCCF
:100DF000FC3800000000000D0D000000000E1E0079
:100E0000001E0E00000000000000000020F8F82086
:100E1000F8F82000020F0F020F0F0200387C444741
:100E200047CC9800060C0838380F07003030008097
:100E3000C06030000C060301000C0C0080D87CE47C
:100E4000BCD84000070F0808070F080000101E0E4E
:100E50000000000000000000000000000000F0F8AA
:100E60000C040000000003070C0800000000040C44
:100E7000F8F000000000080C0703000080A0E0C0AC
:100E8000C0E0A0800002030101030200008080E0B6
:100E9000E08080000000000303000000000000006C
:100EA000000000000000101E0E0000008080808006
:100EB00080808000000000000000000000000000B2
:100EC000000000000000000C0C000000000000808A
:100ED000C06030000C06030100000000F8F80CC4EC
:100EE0000CF8F00003070C080C070300001018FCB6
:100EF000FC0000000008080F0F080800080C84C45C
:100F0000643C18000E0F0908080C0C00080C44443F
:100F100044FCB800040C0808080F0700C0E0B098B3
:100F2000FCFC8000000000080F0F08007C7C44449B
:100F300044C48400040C0808080F0700F0F84C446F
:100F400044C08000070F0808080F07000C0C048439
:100F5000C47C3C0000000F0F00000000B8FC4444BB
:100F600044FCB800070F0808080F0700387C444409
:100F700044FCF800000808080C07030000000030DB
:100F800030000000000000060600000000000030F5
:100F9000300000000000080E060000000080C06065
:100FA0003018080000000103060C08000020202073
:100FB000202020000001010101010100000818307B
:100FC00060C0800000080C0603010000181C04C467
:100FD000E43C18000000000D0D000000F0F008C80F
:100FE000C8F8F000070F080B0B0B0100E0F0988C1D
:100FF00098F0E0000F0F0000000F0F0004FCFC440D
:1010000044FCB800080F0F08080F0700F0F80C04A4
:10101000040C180003070C08080C060004FCFC0470
:101020000CF8F000080F0F080C07030004FCFC4448
:10103000E40C1C00080F0F08080C0E0004FCFC4414
:10104000E40C1C00080F0F0800000000F0F80C84EE
:10105000848C980003070C0808070F00FCFC404034
:1010600040FCFC000F0F0000000F0F00000004FC0C
:10107000FC0400000000080F0F080000000000043E
:10108000FCFC0400070F08080F07000004FCFCC06C
:10109000E03C1C00080F0F00010F0E0004FCFC04D4
:1010A00000000000080F0F08080C0E00FCFC387050
:1010B00038FCFC000F0F0000000F0F00FCFC387024
:1010C000E0FCFC000F0F0000000F0F00F8FC040410
:1010D00004FCF800070F0808080F070004FCFC4494
:1010E000447C3800080F0F0800000000F8FC0404DE
:1010F00004FCF800070F080E3C3F270004FCFC44EA
:10110000C4FC3800080F0F00000F0F00183C6444A7
:10111000C49C1800060E0808080F0700001C0CFCF1
:10112000FC0C1C000000080F0F080000FCFC000075
:1011300000FCFC00070F0808080F0700FCFC00007B
:1011400000FCFC000103060C06030100FCFC00008F
:1011500000FCFC00070F0E030E0F07000C3CF0E034
:10116000F03C0C000C0F0301030F0C00000C7CC0C2
:10117000C07C3C000000080F0F0800001C0C84C459
:10118000643C1C000E0F0908080C0E000000FCFC5B
:101190000404000000000F0F080800003870E0C0D1
:1011A000800000000000000103070E00000004049E
:1011B000FCFC0000000008080F0F0000080C0603EC
:1011C000060C080000000000000000000000000005
:1011D0000000000020202020202020200000030705
:1011E00004000000000000000000000000A0A0A01B
:1011F000E0C00000070F0808070F080004FCFC20EF
:1012000060C08000000F0F08080F0700C0E020201A
:1012100020604000070F0808080C040080C060240C
:10122000FCFC0000070F0808070F0800C0E0A0A0A2
:10123000A0E0C000070F0808080C040040F8FC44B8
:101240000C180000080F0F0800000000C0E020206C
:10125000C0E02000276F48487F3F000004FCFC40AE
:1012600020E0C000080F0F00000F0F00000020EC6E
:10127000EC0000000000080F0F0800000000000054
:1012800020ECEC0000307040407F3F0004FCFC800C
:10129000C0602000080F0F01030E0C00000004FCCA
:1012A000FC0000000000080F0F080000E0E060C034
:1012B00060E0C0000F0F0007000F0F0020E0C0200B
:1012C00020E0C000000F0F00000F0F00C0E0202042
:1012D00020E0C000070F0808080F070020E0C0202A
:1012E00020E0C000407F7F48080F0700C0E02020BA
:1012F000C0E02000070F08487F7F400020E0C0606A
:1013000020E0C000080F0F080000000040E0A0200F
:1013100020604000040C09090B0E04002020F8FC9A
:10132000202000000000070F080C0400E0E000008F
:10133000E0E00000070F0808070F080000E0E000E9
:1013400000E0E0000003070C0C070300E0E0008071
:1013500000E0E000070F0C070C0F07002060C080C2
:10136000C0602000080C0703070C0800E0E0000044
:1013700000E0E000474F4848683F1F00606020A041
:10138000E06020000C0E0B09080C0C00004040F837
:10139000BC040400000000070F080800000000BCA7
:1013A000BC0000000000000F0F000000000404BC9F
:1013B000F84040000008080F07000000080C040C6B
:1013C000080C040000000000000000000000000005
:1013D0000000004F00000007000700147F147F1476
:1013E000242A7F2A122313086462364955225000AA
:1013F00005070000001C2241000041221C001408C7
:101400003E081408083E080800503000000808088C
:101410000808006060000020100804023E514945A1
:101420003E00427F400042615149462141454B31D7
:101430001814127F1027454545393C4A4949300167
:10144000710905033649494936064949291E0036BE
:10145000360000005636000008142241001414140F
:10146000141400412214080201510906324979413D
:101470003E7E1111117E7F494949363E414141224C
:101480007F4141221C7F494949417F090909013EA9
:101490004149497A7F0808087F00417F4100204088
:1014A000413F017F081422417F404040407F020CB1
:1014B000027F7F0408107F3E4141413E7F090909B8
:1014C000063E4151215E7F09192946464949493165
:1014D00001017F01013F4040403F1F2040201F3F4E
:1014E0004038403F631408146307087008076151CF
:1014F000494543007F41410002040810200041415A
:101500007F00040201020440404040400102040008
:101510000020545454787F48484830384444444468
:10152000304848487F385454545800087E090248CF
:101530005454543C7F0808087000007A0000204092
:10154000403D007F2028440000417F40007C04385B
:10155000047C7C0804047838444444387C14141413
:1015600008081414147C7C080404084854545424B7
:1015700004043F44243C4040403C1C2040201C3C90
:101580004030403C44281028440448300804446457
:10159000544C4408364141000000770000004141AE
:1015A00036080402020201000000000000000000F2
:1015B000000000000000000000000000000000002B
:1015C000000000000000000000000000000000001B
:1015D000000000000000000000000000000000000B
:1015E00000000000000000000000000000000000FB
:1015F00000000000000000000000000000000000EB
:1016000000000000000000000000000000000000DA
:1016100000000000000000000000000000000000CA
:1016200000000000000000000000000000000000BA
:1016300000000000000000000000000000000000AA
:10164000000000808000000000000000000000009A
:10165000000000807008000000000000000000088A
:1016600000008008000010000000100000001000C2
:10167000000010000000100000001000001C1E1EE2
:101680001E1C000010000000080008008088804434
:101690000404000000000000000000000000000042
:1016A000000000000000000000000000000000003A
:1016B00000000000000000000000800000000000AA
:1016C00000080908000000000000C04000002020C1
:1016D00020300C030000000808C0004040202030EB
:1016E00010100225272020202020002000200000AC
:1016F00020000210D05038303028202444420040CE
:101700000000000000080000100020004000808061
:101710008000000000000000000000000000000049
:1017200000000000000000000000000000000000B9
:10173000000000000000000006030100000000009F
:10174000000000E0180C06030609312020204000AC
:1017500040000000000000004080070C080808005E
:1017600000008000000000000000000000000000F9
:101770000000807900C000000000000000000000B0
:101780000000000000067080000000000000000063
:101790008041110000000000000000000000000077
:1017A0000000000000000000000000000000000039
:1017B0000000000000000000000006E880000000BB
:1017C0000000000001010001000000000000000016
:1017D00000181010200020003011363858505808DA
:1017E00056919890808080800009030A0A0800843E
:1017F00086810204040908080000000000000000BF
:101800000000081800000007080808080404000188
:1018100000000000000000000000000000000000C8
:1018200000000000000000000000000000000000B8
:1018300000000000000000000000000001010100A5
:101840000000000000000000000000000000000098
:10185000000000000004060000000000000000007E
:10186000000000000000000400080000080000085C
:10187000000009010109010901090008040700002D
:101880000000000000000000000000000000000058
:101890000000000000000000000000000000000048
:1018A0000000000000000000000000000000000038
:1018B0000000000000000000000000000000000028
:1018C0000000000000000000000000000000000018
:1018D0000000000000000000000000000000000008
:1018E00000000000000000000000000000000000F8
:1018F00000000000000000000000000000000000E8
:1019000000000000000000000000000000000000D7
:1019100000000000000000000000000000000000C7
:1019200000000000000000000000000000000000B7
:1019300000000000000000000000000000000000A7
:101940000000000000000000000000000000000097
:101950000000000000000000000000000000000087
:101960000000000000000000000000000000000077
:101970000000000000000000000000000000000067
:101980000000000000000000000000000000000057
:101990000000000000000000000000000000000047
:1019A0000000000000000000000000000000000037
:1019B000000000000080C0E0F0F0F8F8FCFCFEFE43
:1019C000FEFFFFFF7F7F7F7F7F7F7F7FFFFFFEFE2A
:1019D000FEDEFCFCF8F8F0E0E0C080000000000053
:1019E000000000000000000000000000000000C037
:1019F000F0F8FCFEFFFFFF7F3E1F0F07030301010E
:101A0000000000000080C0E00010303070F0F0E115
:101A1000C1018307070F1F3FFFFFFFFFFEFCF8E038
:101A2000C00000000000000000000000C0FCFFFF3C
:101A3000FFFFFFFF1F030100000070F8F8700000B7
:101A400080E0F8FEFF3F03000000000000FFFFFF02
:101A5000FFE0FFFF000000000001073FFFFFFFFF66
:101A6000FFFEF80000000000000000007FFFFFFF05
:101A7000FFFFFFFF000000000000E0F0F08000002A
:101A8000FFFFFFFFFFF0000000C0E0F8FE7F3F9F78
:101A90008FC7E370380E060000000080FFFFFFFFD5
:101AA000FFFFFF1F000000000000000000073FFFD5
:101AB000FFFFFFFFFEF8E08000000F1F3F3F7F7E2B
:101AC0007D7FFF7FFFFFFFFEFFFDFFDFCECFC7C79C
:101AD000C3E1E0F070381C8EC0E0F8FFFFFFFFFFAD
:101AE0007F1F030000000000000000000000000055
:101AF00001070F1F3F7FFFFFFFFEFCF8F8F0F0E04B
:101B0000E0C0C0C0C0C1C18183C3C3C3C3C3E3E1DC
:101B1000E1F1F0F8FCFEFFFFFFFF7F3F1F0F030125
:101B200000000000000000000000000000000000B5
:101B3000000000000000000101030707070F0F1F4E
:101B40001F1F1F3F3F3F3F3F3F3F3F3F3F1F1F1F65
:101B50001F0F0F0707030301000000000000000033
:101B600000000000000000302E39364F4C4544D2B2
:101B7000BABEA7C4A3BFE900CEC2CAAAB6C80010A5
:101B800060028C0000FE9292929292FE000000048D
:101B9000047E01407E42427E427E42427E400010F0
:101BA00060028C00FE929292929292FE00000004DB
:101BB000047E014448507F40407F5048444000002C
:101BC00000FC242424FC252624FC24242404004096
:101BD000308F80844C55252525554C808080000011
:101BE000001C000800000020200000002801000860
:101BF000201C0008200000202807000044010008E5
:101C000000A24A04000000000000000001020304DA
:101C100006070809000000000000000000000000A6
:040000050800018965
:00000001FF
